:020000020000FC
:0C0000000C945A000C9489000C94A7008A
:100050000C947B0080A1BFDAEEFBFBEEDABFA1803F
:100060005F4025110400041125405F80FFFFFFFF62
:10007000FFFFFFFFFFFFFFFF000000000000000088
:100080000000000000152B40556A8095BFD5EAFF9F
:10009000FFEAD5BF95806A55402B1500000B16214D
:1000A0002C37424E59646F7A85909BA6B1BCC8D359
:1000B000DEE9F4FF0FEF04B901B90FEF05B94DEF19
:1000C0004093850035E63093840001E00093810081
:1000D00001E000936F0003E00DBB0FE000936900A7
:1000E00078945FEF6FEF28E1E4E5F0E04DEF35E65F
:1000F00000000C94780030938400409385001491A4
:1001000015B9E3952A9509F01895E85128E10C9462
:1001100084005395503021F4E4E5F0E00C94A50000
:10012000513021F4ECE6F0E00C94A500523021F4BB
:10013000E4E8F0E00C94A500533021F4ECE9F0E0A1
:100140000C94A50055270C948A0028E11895639516
:10015000603021F44DEF35E60C94C300613021F49A
:1001600042EF3BEF0C94C300623021F445EE35EFD3
:100170000C94C300633021F448ED30EF0C94C300BD
:0801800066270C94A8001895F5
:00000001FF
