:020000020000FC
:0C0000000C945A000C9490000C94AE007C
:100050000C947F0080A1BFDAEEFBFBEEDABFA1803B
:100060005F4025110400041125405F80FFFFFFFF62
:10007000FFFFFFFFFFFFFFFF000000000000000088
:100080000000000000152B40556A8095BFD5EAFF9F
:10009000FFEAD5BF95806A55402B1500000B16214D
:1000A0002C37424E59646F7A85909BA6B1BCC8D359
:1000B000DEE9F4FF00E80093740000E800937500A7
:1000C00000E0009375004DEF4093850035E63093D6
:1000D000840001E00093810001E000936F0003E0E1
:1000E0000DBB0FE00093690078945FEF6FEF28E19C
:1000F000E4E5F0E04DEF35E600000C947C00309331
:1001000084004093850014911093DD8F9093FF7FBE
:10011000E3952A9509F01895E85128E10C948B0095
:100120005395503021F4E4E5F0E00C94AC005130EC
:1001300021F4ECE6F0E00C94AC00523021F4E4E859
:10014000F0E00C94AC00533021F4ECE9F0E00C94B6
:10015000AC0055270C94910028E118956395603008
:1001600021F44DEF35E60C94CA00613021F442EFE2
:100170003BEF0C94CA00623021F445EE35EF0C944D
:10018000CA00633021F448ED30EF0C94CA006627B2
:060190000C94AF0018956D
:00000001FF
